{
    "_format": "hh-sol-artifact-1",
    "contractName": "Transactions",
    "sourceName": "contracts/Transactions.sol",
    "abi": [
        {
            "anonymous": false,
            "inputs": [
                {
                    "indexed": true,
                    "internalType": "address",
                    "name": "from",
                    "type": "address"
                },
                {
                    "indexed": true,
                    "internalType": "address",
                    "name": "receiver",
                    "type": "address"
                },
                {
                    "indexed": false,
                    "internalType": "uint256",
                    "name": "amount",
                    "type": "uint256"
                },
                {
                    "indexed": false,
                    "internalType": "string",
                    "name": "message",
                    "type": "string"
                },
                {
                    "indexed": false,
                    "internalType": "uint256",
                    "name": "timestamp",
                    "type": "uint256"
                },
                {
                    "indexed": false,
                    "internalType": "string",
                    "name": "account",
                    "type": "string"
                }
            ],
            "name": "Transfer",
            "type": "event"
        },
        {
            "anonymous": false,
            "inputs": [
                {
                    "indexed": true,
                    "internalType": "address",
                    "name": "from",
                    "type": "address"
                },
                {
                    "indexed": false,
                    "internalType": "uint256",
                    "name": "amount",
                    "type": "uint256"
                },
                {
                    "indexed": false,
                    "internalType": "uint256",
                    "name": "timestamp",
                    "type": "uint256"
                }
            ],
            "name": "Withdraw",
            "type": "event"
        },
        {
            "inputs": [],
            "name": "getAllTransactions",
            "outputs": [
                {
                    "components": [
                        {
                            "internalType": "address",
                            "name": "sender",
                            "type": "address"
                        },
                        {
                            "internalType": "address",
                            "name": "receiver",
                            "type": "address"
                        },
                        {
                            "internalType": "uint256",
                            "name": "amount",
                            "type": "uint256"
                        },
                        {
                            "internalType": "string",
                            "name": "message",
                            "type": "string"
                        },
                        {
                            "internalType": "uint256",
                            "name": "timestamp",
                            "type": "uint256"
                        },
                        {
                            "internalType": "string",
                            "name": "account",
                            "type": "string"
                        }
                    ],
                    "internalType": "struct Transactions.TransferStruct[]",
                    "name": "",
                    "type": "tuple[]"
                }
            ],
            "stateMutability": "view",
            "type": "function"
        },
        {
            "inputs": [
                {
                    "internalType": "address",
                    "name": "addr",
                    "type": "address"
                }
            ],
            "name": "getBalance",
            "outputs": [
                {
                    "internalType": "uint256",
                    "name": "",
                    "type": "uint256"
                }
            ],
            "stateMutability": "view",
            "type": "function"
        },
        {
            "inputs": [],
            "name": "getTransactionCount",
            "outputs": [
                {
                    "internalType": "uint256",
                    "name": "",
                    "type": "uint256"
                }
            ],
            "stateMutability": "view",
            "type": "function"
        },
        {
            "inputs": [
                {
                    "internalType": "address payable",
                    "name": "receiver",
                    "type": "address"
                },
                {
                    "internalType": "uint256",
                    "name": "amount",
                    "type": "uint256"
                },
                {
                    "internalType": "string",
                    "name": "message",
                    "type": "string"
                },
                {
                    "internalType": "string",
                    "name": "account",
                    "type": "string"
                }
            ],
            "name": "transfer",
            "outputs": [],
            "stateMutability": "nonpayable",
            "type": "function"
        },
        {
            "inputs": [
                {
                    "internalType": "uint256",
                    "name": "amount",
                    "type": "uint256"
                }
            ],
            "name": "withdraw",
            "outputs": [],
            "stateMutability": "nonpayable",
            "type": "function"
        }
    ],
    "bytecode": "0x608060405234801561001057600080fd5b50611297806100206000396000f3fe608060405234801561001057600080fd5b50600436106100575760003560e01c806327506f531461005c5780632e1a7d4d1461007a5780632e7700f014610096578063e9c02815146100b4578063f8b2cb4f146100d0575b600080fd5b610064610100565b6040516100719190610a96565b60405180910390f35b610094600480360381019061008f9190610af8565b610343565b005b61009e6104b5565b6040516100ab9190610b34565b60405180910390f35b6100ce60048036038101906100c99190610cc2565b6104be565b005b6100ea60048036038101906100e59190610d8d565b610811565b6040516100f79190610b34565b60405180910390f35b60606001805480602002602001604051908101604052809291908181526020016000905b8282101561033a57838290600052602060002090600602016040518060c00160405290816000820160009054906101000a900473ffffffffffffffffffffffffffffffffffffffff1673ffffffffffffffffffffffffffffffffffffffff1673ffffffffffffffffffffffffffffffffffffffff1681526020016001820160009054906101000a900473ffffffffffffffffffffffffffffffffffffffff1673ffffffffffffffffffffffffffffffffffffffff1673ffffffffffffffffffffffffffffffffffffffff1681526020016002820154815260200160038201805461020d90610de9565b80601f016020809104026020016040519081016040528092919081815260200182805461023990610de9565b80156102865780601f1061025b57610100808354040283529160200191610286565b820191906000526020600020905b81548152906001019060200180831161026957829003601f168201915b50505050508152602001600482015481526020016005820180546102a990610de9565b80601f01602080910402602001604051908101604052809291908181526020018280546102d590610de9565b80156103225780601f106102f757610100808354040283529160200191610322565b820191906000526020600020905b81548152906001019060200180831161030557829003601f168201915b50505050508152505081526020019060010190610124565b50505050905090565b80600260003373ffffffffffffffffffffffffffffffffffffffff1673ffffffffffffffffffffffffffffffffffffffff1681526020019081526020016000205410156103c5576040517f08c379a00000000000000000000000000000000000000000000000000000000081526004016103bc90610e77565b60405180910390fd5b80600260003373ffffffffffffffffffffffffffffffffffffffff1673ffffffffffffffffffffffffffffffffffffffff16815260200190815260200160002060008282546104149190610ec6565b925050819055503373ffffffffffffffffffffffffffffffffffffffff166108fc829081150290604051600060405180830381858888f19350505050158015610461573d6000803e3d6000fd5b503373ffffffffffffffffffffffffffffffffffffffff167ff279e6a1f5e320cca91135676d9cb6e44ca8a08c0b88342bcdb1144f6511b56882426040516104aa929190610efa565b60405180910390a250565b60008054905090565b82600260003373ffffffffffffffffffffffffffffffffffffffff1673ffffffffffffffffffffffffffffffffffffffff168152602001908152602001600020541015610540576040517f08c379a000000000000000000000000000000000000000000000000000000000815260040161053790610e77565b60405180910390fd5b82600260003373ffffffffffffffffffffffffffffffffffffffff1673ffffffffffffffffffffffffffffffffffffffff168152602001908152602001600020600082825461058f9190610ec6565b9250508190555082600260008673ffffffffffffffffffffffffffffffffffffffff1673ffffffffffffffffffffffffffffffffffffffff16815260200190815260200160002060008282546105e59190610f23565b9250508190555060016000808282546105fe9190610f23565b9250508190555060016040518060c001604052803373ffffffffffffffffffffffffffffffffffffffff1681526020018673ffffffffffffffffffffffffffffffffffffffff16815260200185815260200184815260200142815260200183815250908060018154018082558091505060019003906000526020600020906006020160009091909190915060008201518160000160006101000a81548173ffffffffffffffffffffffffffffffffffffffff021916908373ffffffffffffffffffffffffffffffffffffffff16021790555060208201518160010160006101000a81548173ffffffffffffffffffffffffffffffffffffffff021916908373ffffffffffffffffffffffffffffffffffffffff1602179055506040820151816002015560608201518160030190816107369190611103565b506080820151816004015560a08201518160050190816107569190611103565b5050508373ffffffffffffffffffffffffffffffffffffffff163373ffffffffffffffffffffffffffffffffffffffff167f416cfa4330a4565f45c2fd2dd4826a83a37443aba2ce6f79477c7355afac35fa858542866040516107bc949392919061120e565b60405180910390a38373ffffffffffffffffffffffffffffffffffffffff166108fc849081150290604051600060405180830381858888f1935050505015801561080a573d6000803e3d6000fd5b5050505050565b6000600260008373ffffffffffffffffffffffffffffffffffffffff1673ffffffffffffffffffffffffffffffffffffffff168152602001908152602001600020549050919050565b600081519050919050565b600082825260208201905092915050565b6000819050602082019050919050565b600073ffffffffffffffffffffffffffffffffffffffff82169050919050565b60006108b182610886565b9050919050565b6108c1816108a6565b82525050565b6000819050919050565b6108da816108c7565b82525050565b600081519050919050565b600082825260208201905092915050565b60005b8381101561091a5780820151818401526020810190506108ff565b60008484015250505050565b6000601f19601f8301169050919050565b6000610942826108e0565b61094c81856108eb565b935061095c8185602086016108fc565b61096581610926565b840191505092915050565b600060c08301600083015161098860008601826108b8565b50602083015161099b60208601826108b8565b5060408301516109ae60408601826108d1565b50606083015184820360608601526109c68282610937565b91505060808301516109db60808601826108d1565b5060a083015184820360a08601526109f38282610937565b9150508091505092915050565b6000610a0c8383610970565b905092915050565b6000602082019050919050565b6000610a2c8261085a565b610a368185610865565b935083602082028501610a4885610876565b8060005b85811015610a845784840389528151610a658582610a00565b9450610a7083610a14565b925060208a01995050600181019050610a4c565b50829750879550505050505092915050565b60006020820190508181036000830152610ab08184610a21565b905092915050565b6000604051905090565b600080fd5b600080fd5b610ad5816108c7565b8114610ae057600080fd5b50565b600081359050610af281610acc565b92915050565b600060208284031215610b0e57610b0d610ac2565b5b6000610b1c84828501610ae3565b91505092915050565b610b2e816108c7565b82525050565b6000602082019050610b496000830184610b25565b92915050565b6000610b5a82610886565b9050919050565b610b6a81610b4f565b8114610b7557600080fd5b50565b600081359050610b8781610b61565b92915050565b600080fd5b600080fd5b7f4e487b7100000000000000000000000000000000000000000000000000000000600052604160045260246000fd5b610bcf82610926565b810181811067ffffffffffffffff82111715610bee57610bed610b97565b5b80604052505050565b6000610c01610ab8565b9050610c0d8282610bc6565b919050565b600067ffffffffffffffff821115610c2d57610c2c610b97565b5b610c3682610926565b9050602081019050919050565b82818337600083830152505050565b6000610c65610c6084610c12565b610bf7565b905082815260208101848484011115610c8157610c80610b92565b5b610c8c848285610c43565b509392505050565b600082601f830112610ca957610ca8610b8d565b5b8135610cb9848260208601610c52565b91505092915050565b60008060008060808587031215610cdc57610cdb610ac2565b5b6000610cea87828801610b78565b9450506020610cfb87828801610ae3565b935050604085013567ffffffffffffffff811115610d1c57610d1b610ac7565b5b610d2887828801610c94565b925050606085013567ffffffffffffffff811115610d4957610d48610ac7565b5b610d5587828801610c94565b91505092959194509250565b610d6a816108a6565b8114610d7557600080fd5b50565b600081359050610d8781610d61565b92915050565b600060208284031215610da357610da2610ac2565b5b6000610db184828501610d78565b91505092915050565b7f4e487b7100000000000000000000000000000000000000000000000000000000600052602260045260246000fd5b60006002820490506001821680610e0157607f821691505b602082108103610e1457610e13610dba565b5b50919050565b600082825260208201905092915050565b7f496e73756666696369656e742062616c616e63652e0000000000000000000000600082015250565b6000610e61601583610e1a565b9150610e6c82610e2b565b602082019050919050565b60006020820190508181036000830152610e9081610e54565b9050919050565b7f4e487b7100000000000000000000000000000000000000000000000000000000600052601160045260246000fd5b6000610ed1826108c7565b9150610edc836108c7565b9250828203905081811115610ef457610ef3610e97565b5b92915050565b6000604082019050610f0f6000830185610b25565b610f1c6020830184610b25565b9392505050565b6000610f2e826108c7565b9150610f39836108c7565b9250828201905080821115610f5157610f50610e97565b5b92915050565b60008190508160005260206000209050919050565b60006020601f8301049050919050565b600082821b905092915050565b600060088302610fb97fffffffffffffffffffffffffffffffffffffffffffffffffffffffffffffffff82610f7c565b610fc38683610f7c565b95508019841693508086168417925050509392505050565b6000819050919050565b6000611000610ffb610ff6846108c7565b610fdb565b6108c7565b9050919050565b6000819050919050565b61101a83610fe5565b61102e61102682611007565b848454610f89565b825550505050565b600090565b611043611036565b61104e818484611011565b505050565b5b818110156110725761106760008261103b565b600181019050611054565b5050565b601f8211156110b75761108881610f57565b61109184610f6c565b810160208510156110a0578190505b6110b46110ac85610f6c565b830182611053565b50505b505050565b600082821c905092915050565b60006110da600019846008026110bc565b1980831691505092915050565b60006110f383836110c9565b9150826002028217905092915050565b61110c826108e0565b67ffffffffffffffff81111561112557611124610b97565b5b61112f8254610de9565b61113a828285611076565b600060209050601f83116001811461116d576000841561115b578287015190505b61116585826110e7565b8655506111cd565b601f19841661117b86610f57565b60005b828110156111a35784890151825560018201915060208501945060208101905061117e565b868310156111c057848901516111bc601f8916826110c9565b8355505b6001600288020188555050505b505050505050565b60006111e0826108e0565b6111ea8185610e1a565b93506111fa8185602086016108fc565b61120381610926565b840191505092915050565b60006080820190506112236000830187610b25565b818103602083015261123581866111d5565b90506112446040830185610b25565b818103606083015261125681846111d5565b90509594505050505056fea2646970667358221220376fb7e54f723e13ada4872230d327b7829f248b2c85b018063e7f1e2bb1c9d564736f6c63430008110033",
    "linkReferences": {},
    "deployedLinkReferences": {}
}